:020000040800F2
:1000000088060020F5030008FD030008FF03000830
:1000100001040008030400080504000800000000B3
:1000200000000000000000000000000007040008BD
:1000300009040008000000000B0400080D0400087B
:100040000F0400080F0400080F0400080F04000844
:100050000F0400080F0400080F0400080F04000834
:100060000F0400080F0400080F0400080F04000824
:100070000F0400088B0300080F0400080F04000899
:10008000EF0200080F0400080F0400080F04000826
:100090000F0400080F0400080F0400080F040008F4
:1000A0000F0400080F0400080F0400080F040008E4
:1000B0000F0400080F0400080F0400080F040008D4
:1000C0000F0400080F0400080F0400080F040008C4
:1000D0000F0400080F0400080F0400080F040008B4
:1000E0000F0400080F0400080F04000800000000BF
:1000F0000000000000000000000000000000000000
:1001000000000000000000000F0400080F040008B9
:100110000F0400080F0400080F0400080F04000873
:100120000F0400080F0400080F0400080F04000863
:100130000F0400080F0400080F0400080F04000853
:100140000F0400080F0400080F0400080F04000843
:1001500000F002F800F03AF80AA090E8000C82449F
:100160008344AAF10107DA4501D100F02FF8AFF27C
:10017000090EBAE80F0013F0010F18BFFB1A43F085
:10018000010318470C1100002C110000103A24BF85
:1001900078C878C1FAD8520724BF30C830C144BFEC
:1001A00004680C607047000000230024002500262E
:1001B000103A28BF78C1FBD8520728BF30C148BFCA
:1001C0000B6070471FB51FBD10B510BD01F028F8BA
:1001D0001146FFF7F7FF00F00FF801F046F803B4FF
:1001E000FFF7F2FF03BC01F04BF8000000BF08204E
:1001F0007249086000BF70470120714948614FF69D
:10020000FF71704800F018FB4FF471416E4800F028
:1002100013FB00224FF416516C4800F04BFC0022F7
:100220004FF416516A4800F045FC00210D2000F003
:1002300031FC0D2000F082FB00210D2000F02AFC93
:100240000D2000F07BFB4FF6FF71624800F0F4FADE
:10025000002061490860614908705B48C06820F46B
:1002600000505949C86041E05D48007830B15648B7
:10027000C06820F400505449C86005E05248C06886
:1002800040F400505049C8604E480C30006820F4DB
:1002900000604C490C3108600846006820F480502A
:1002A000086050A1494800F03DFD14214C4800F081
:1002B0006BFF44480C30006840F4006041490C3149
:1002C00008600846006820F4805008604FF4FA6027
:1002D00000EBC00303EB00130624C4EB83120021E0
:1002E00001E000BF491C9142FBD300BFBCE710B541
:1002F0003E48006810F4001F08D03C48406840F4B5
:1003000000303A49486001203449087006213748D6
:1003100000F00FFA0621354800F02FFA10BD122028
:10032000334908602648006840F48030244908605A
:1003300000BF2348006810F4003FFAD0204800684E
:1003400040F080601E4908600846406840F48030F4
:1003500048600846406840F4E0104860084640683D
:1003600040F4806048600846006840F08070086093
:1003700000BF1348006810F0007FFAD010484068B2
:1003800040F002000E494860704710B517480068F9
:1003900010F4007F08D01548406840F400701349FD
:1003A000486001200D4908700321104800F0C1F990
:1003B00003210E4800F0E1F910BD0000000000200C
:1003C00000100240000801400010014000380140C8
:1003D00000480040001801400800002004000020F0
:1003E0001400002048656C6C6F00000000000240A3
:1003F000002002400948804709480047FEE7FEE721
:10040000FEE7FEE7FEE7FEE7FEE7FEE7FEE7FEE7C4
:1004100004480549054A064B70470000ED010008F5
:100420005101000888000020880600208802002072
:100430008802002010B54A1E02EB8202930000F1F0
:100440000802D25822F001034A1E02EB82029400F5
:1004500000F10802135100234A1E02EB82029400AD
:1004600000F1080213514A1E02EB8202940000F1CF
:100470000C0213514A1E02EB8202940000F110029A
:1004800013514A1E02EB8202940000F11402135130
:1004900042684B1E9C000F23A3401A43426010BDCC
:1004A00010B54A1E02EB8202930000F10802D258F6
:1004B00042F480434A1E02EB8202940000F10802DB
:1004C00013514A1E02EB8202930000F10802D25837
:1004D00022F020034A1E02EB8202940000F108027F
:1004E000135110BD30B54B1E03EB83039C0000F18C
:1004F00008031B5923F440544B1E03EB83039D0058
:1005000000F108035C514B1E03EB83039C0000F1D8
:1005100008031B5913434C1E04EB8404A50000F18F
:100520000804635130BD30B54B1E03EB83039C00C0
:1005300000F108031B5923F440644B1E03EB8303B3
:100540009D0000F108035C514B1E03EB83039C00EC
:1005500000F108031B5913434C1E04EB8404A5004F
:1005600000F10804635130BD30B54B1E03EB83032B
:100570009C0000F108031B5923F440744B1E03EB4D
:1005800083039D0000F108035C514B1E03EB8303C2
:100590009C0000F108031B5913434C1E04EB840418
:1005A000A50000F10804635130BD10B54A1E02EBEE
:1005B0008202930000F10802D25842F080034A1EE2
:1005C00002EB8202940000F10802135110BD10B535
:1005D0004A1E02EB8202930000F10802D25842F058
:1005E00040034A1E02EB8202940000F108021351FC
:1005F00010BD10B54A1E02EB8202930000F1080202
:10060000D25842F020034A1E02EB8202940000F10D
:10061000080213514A1E02EB8202930000F1080205
:10062000D25822F480434A1E02EB8202940000F169
:100630000802135110BD10B54A1E02EB820293004E
:1006400000F10802D25822F010034A1E02EB820287
:10065000940000F10802135110BD10B54A1E02EBC0
:100660008202930000F10802D25842F010034A1EA1
:1006700002EB8202940000F10802135110BD10B584
:100680004A1E02EB8202930000F10802D25842F0A7
:1006900008034A1E02EB8202940000F10802135183
:1006A00010BD10B54A1E02EB8202930000F1080251
:1006B000D25822F008034A1E02EB8202940000F195
:1006C0000802135110BD10B54A1E02EB82029300BE
:1006D00000F10802D25842F004034A1E02EB8202E3
:1006E000940000F10802135110BD10B54A1E02EB30
:1006F0008202930000F10802D25822F004034A1E3D
:1007000002EB8202940000F10802135110BD10B5F3
:100710004A1E02EB8202930000F10802D25842F016
:1007200002034A1E02EB8202940000F108021351F8
:1007300010BD10B54A1E02EB8202930000F10802C0
:10074000D25822F002034A1E02EB8202940000F10A
:100750000802135110BD10B54A1E02EB820293002D
:1007600000F10802D25842F001034A1E02EB820255
:10077000940000F10802135110BD10B54A1E02EB9F
:100780008202930000F10802D25822F001034A1EAF
:1007900002EB8202940000F10802135110BD10B563
:1007A0004B1E03EB83039C0000F110031A5110BD94
:1007B00010B54B1E03EB83039C0000F114031A5188
:1007C00010BD10B54B1E03EB83039C0000F10C031E
:1007D0001A5110BD5349884206D15349896941F0E5
:1007E0000401514A916126E05049884206D14E49A0
:1007F000896941F008014C4A91611CE04C498842EA
:1008000006D14949896941F01001474A916112E0D6
:100810004849884206D14449896941F02001424A49
:10082000916108E04449884205D13F49896941F016
:1008300040013D4A916170472DE9F04305460E465F
:100840000027B84600232846FFF7C4FF0124A1462D
:100850001EE0A9F1010083001F2B08D8264203D017
:1008600003209840074302E00420984007431F2BD1
:100870000BD9203B264204D00320984040EA0808C8
:1008800003E00420984040EA0808640009F10109E7
:1008900014B1B4F5803FDCD32F60C5F80480BDE807
:1008A000F0832DE9F04306460D460027B8460024A4
:1008B0003046FFF78FFF0123994615E0A9F10100AB
:1008C00084001F2C04D81D4202D00B20A0400743F7
:1008D0001F2C06D9203C1D4203D00B20A04040EA2B
:1008E00008085B0009F101090BB1AB42E6D937609A
:1008F000C6F80480BDE8F083C160704701228A40D9
:100900000261704701228A4042617047014688684F
:1009100080B270470246906801238B40184080B235
:10092000704700000008014000100240000C014028
:1009300000100140001401400018014030B501468C
:10094000C31700EBD3635B11A0EB43140123A34057
:100950000246C41700EBD46464114FF0E02505EBA8
:100960008404C4F8003130BD30B50146C31700EB34
:10097000D3635B11A0EB43140123A3400246C417C9
:1009800000EBD46464114FF0E02505EB8404C4F857
:10099000803130BD30B501460A46C81701EBD06042
:1009A00040114FF0E02404EB8000D0F800020B4629
:1009B000CC1701EBD4646411A1EB44150124AC40C5
:1009C000204201D0012030BD0020FCE730B50146B7
:1009D000C31700EBD3635B11A0EB43140123A340C7
:1009E0000246C41700EBD46464114FF0E02505EB18
:1009F0008404C4F8003230BD30B50146C31700EBA3
:100A0000D3635B11A0EB43140123A3400246C41738
:100A100000EBD46464114FF0E02505EB8404C4F8C6
:100A2000803230BD30B501460A46C81701EBD060B0
:100A300040114FF0E02404EB8000D0F800030B4697
:100A4000CC1701EBD4646411A1EB44150124AC4034
:100A5000204201D0012030BD0020FCE730B5014626
:100A60000A46C81701EBD06040114FF0E02404EBB8
:100A70008000D0F800010B46CC1701EBD464641160
:100A8000A1EB44150124AC40204201D0012030BD2F
:100A90000020FCE7054A81547047EF2804DC044934
:100AA00009680143024A11607047000000E400E059
:100AB00000EF00E010B5FE4B98423BD182B9FD4BF0
:100AC0009B6943F00403FB4CA361FB4B1B6843F0A1
:100AD000B003F94C236023461B6843F48063236012
:100AE000012A20D1F34B9B6943F00803F14CA36129
:100AF00023469B6943F00103A361F04B5B6823F03D
:100B00000403EE4C636023465B6843F004036360B8
:100B1000EB4B1B6843F03063E94C236023461B68B2
:100B200043F080432360E34B9B6943F48043E14CF3
:100B3000A361A4E0E34B984247D1E2B9DD4B9B6946
:100B400043F00103DB4CA36123469B6943F004039C
:100B5000A3612346DB6943F40033E361D64B1B1FDB
:100B60001B6843F43063D44C241F236023461B6866
:100B700043F480432360012A20D1CE4B9B6943F08C
:100B80002003CC4CA36123469B6943F00103A3617E
:100B9000CA4B5B6823F00803C84C636023465B685C
:100BA00043F008036360C84B1B6843F43003C64C32
:100BB000236023461B6843F080632360BD4BDB69E1
:100BC00043F40033BB4CE36159E0C04B984219D168
:100BD000B84B9B6943F00803B64CA361B84B1B1D8F
:100BE0001B6843F43063B64C241D236023461B6806
:100BF00043F480432360AF4BDB6943F48023AD4C67
:100C0000E3613CE0B24B984217D1AA4B9B6943F099
:100C10001003A84CA361AF4B5B6843F43063AD4C49
:100C2000636023465B6843F480436360A14BDB69E8
:100C300043F400239F4CE36121E0A74B98421ED16F
:100C40009C4B9B6943F010039A4CA36123469B691C
:100C500043F02003A3619F4B5B6843F430339D4C0A
:100C60006360994B1B1D1B6843F48063964C241DE5
:100C70002360904BDB6943F480138E4CE361974B08
:100C80001B68974C6343B3FBF1F30381838943F003
:100C90000C038381838943F400538381838A43F067
:100CA0008003838210BD00BF028812F0800FFBD04A
:100CB000CAB282807047014600BF088810F0200F3A
:100CC000FBD08888C0B2704730B505460B4600227D
:100CD00000242846FFF7EFFF044601E09C54521C15
:100CE0000A2C01D0052AF9DB30BD70B506460B464B
:100CF000144600220CB9002070BD0AE03046FFF710
:100D0000DAFF05460A2D00D106E09D54501CC2B200
:100D100000BF601E9042F1DC00BF00209854501CC0
:100D2000C0B2E9E738B505460B460020009006E062
:100D3000009C601C0090195D2846FFF7B4FF0098E6
:100D4000185C0028F4D138BD70B504460D46042166
:100D50006448FFF76FFB564A121D04216148FFF7F4
:100D60001EFD224604215F48FFF722FDAAB204219E
:100D70005C48FFF726FD04215A48FFF76EFC04216A
:100D80005848FFF712FC002204215648FFF7ECFBFD
:100D9000002204215348FFF7C6FB4FF440520421C0
:100DA0005048FFF79FFB04214E48FFF7B0FC042199
:100DB0004C48FFF7D0FC3E481430008840F08000DB
:100DC0003B491431088070BD70B504460D460521BD
:100DD0004448FFF72FFB364A121D05214148FFF713
:100DE000DEFC224605213F48FFF7E2FCAAB20521BE
:100DF0003C48FFF7E6FC05213A48FFF71CFC0521BB
:100E00003848FFF7D2FB002205213648FFF7ACFB3C
:100E1000002205213348FFF786FB4FF400520521DD
:100E20003048FFF75FFB05212E48FFF770FC0521D6
:100E30002C48FFF790FC1E481430008840F040001A
:100E40001B491431088070BD70B504460D4607215A
:100E50002448FFF7EFFA1B4A121D07212148FFF72C
:100E60009EFC224607211F48FFF7A2FCAAB20721D9
:100E70001C48FFF7A6FC07211A48FFF7EEFB0721E5
:100E80001848FFF792FB002207211648FFF76CFB7A
:100E9000002207211348FFF746FB4FF44052072179
:100EA0001048FFF71FFB07210E48FFF730FC1BE03F
:100EB00000380140001002400408014000000140D9
:100EC000000C014000440040001401400048004074
:100ED000004C004000100140005000400000002085
:100EE00040420F00000002400721A248FFF733FCF8
:100EF000A148008840F080009F49088070BD70B50F
:100F000004460D4606219B48FFF794FA9A4A103A88
:100F100006219848FFF743FC224606219548FFF733
:100F200047FCAAB206219348FFF74BFC06219148E3
:100F3000FFF781FB06218F48FFF737FB00220621D0
:100F40008C48FFF711FB002206218A48FFF7EBFAD5
:100F50004FF4005206218748FFF7C4FA062185485E
:100F6000FFF7D5FB06218348FFF7F5FB8248008891
:100F700040F040008049088070BD70B504460D46C1
:100F800007217C48FFF756FA7C4A02217948FFF78F
:100F900006FC224602217748FFF70AFCAAB202218A
:100FA0007448FFF70EFC02217248FFF756FB02213E
:100FB0007048FFF7FAFA002202216E48FFF7D4FAD0
:100FC000002202216B48FFF7AEFA4FF44052022193
:100FD0006848FFF787FA02216648FFF798FB02216D
:100FE0006448FFF7B8FB65481030008840F0800087
:100FF00062491031088070BD70B504460D4603216A
:101000005C48FFF717FA5D4A03215A48FFF7C7FB10
:10101000224603215748FFF7CBFBAAB203215548CC
:10102000FFF7CFFB03215348FFF705FB032151488E
:10103000FFF7BBFA002203214E48FFF795FA002282
:1010400003214C48FFF76FFA4FF40052032149483F
:10105000FFF748FA03214748FFF759FB03214548AA
:10106000FFF779FB45481030008840F040004349C5
:101070001031088070BD70B504460D46052140480A
:10108000FFF7D8F93F4A05213D48FFF788FB224684
:1010900005213B48FFF78CFBAAB205213848FFF732
:1010A00090FB05213648FFF7D8FA05213448FFF7B1
:1010B0007CFA002205213248FFF756FA002205216A
:1010C0002F48FFF730FA4FF4405205212C48FFF724
:1010D00009FA05212A48FFF71AFB05212848FFF7DE
:1010E0003AFB28481030008840F080002549103134
:1010F000088070BD70B504460D4603212048FFF7F7
:1011000099F9204A03211E48FFF749FB2246032193
:101110001B48FFF74DFBAAB203211948FFF751FB0B
:1011200003211748FFF787FA03211548FFF73DFA17
:10113000002203211248FFF717FA0022032110486A
:10114000FFF7F1F94FF4005203210D48FFF7CAF9F8
:1011500003210B48FFF7DBFA03210948FFF7FBFAED
:1011600008481030008840F04000064910310880DF
:1011700070BD0000000002401444004004480040DC
:1011800000040240044C00404FF000020429C0F06B
:10119000128010F0030C00F01E80CCF1040CBCF1A6
:1011A000020F18BF00F8012BA8BF20F8022BA1EBFB
:1011B0000C0100F010B85FEAC17C24BF00F8012BDD
:1011C00000F8012B48BF00F8012B704770477047AB
:1011D00070474FF0000200B51346944696462039FA
:1011E00022BFA0E80C50A0E80C50B1F12001BFF4E0
:1011F000F7AF090728BFA0E80C5048BF0CC05DF846
:1012000004EB890028BF40F8042B08BF704748BF93
:1012100020F8022B11F0804F18BF00F8012B704707
:10122000754600F029F8AE4605006946534620F0A1
:101230000700854618B020B5FFF7EAF8BDE8204062
:101240004FF000064FF000074FF000084FF0000B82
:1012500021F00701AC46ACE8C009ACE8C009ACE835
:10126000C009ACE8C0098D4670470446AFF3008062
:101270002046FEF7B4FF0000004870472800002019
:1012800001491820ABBEFEE72600020070470000AF
:10129000B012000800000020140000008C010008BB
:1012A000C41200081400002074060000A801000801
:1012B0000800000000000000000000000000000026
:0412C000000000002A
:04000005080003F5F7
:00000001FF
